{
  "contractName": "DecentralBank",
  "abi": [
    {
      "inputs": [
        {
          "internalType": "contract RWD",
          "name": "_rwd",
          "type": "address"
        },
        {
          "internalType": "contract Tether",
          "name": "_tether",
          "type": "address"
        }
      ],
      "stateMutability": "nonpayable",
      "type": "constructor"
    },
    {
      "inputs": [
        {
          "internalType": "address",
          "name": "",
          "type": "address"
        }
      ],
      "name": "hasStaked",
      "outputs": [
        {
          "internalType": "bool",
          "name": "",
          "type": "bool"
        }
      ],
      "stateMutability": "view",
      "type": "function"
    },
    {
      "inputs": [
        {
          "internalType": "address",
          "name": "",
          "type": "address"
        }
      ],
      "name": "isStaking",
      "outputs": [
        {
          "internalType": "bool",
          "name": "",
          "type": "bool"
        }
      ],
      "stateMutability": "view",
      "type": "function"
    },
    {
      "inputs": [],
      "name": "name",
      "outputs": [
        {
          "internalType": "string",
          "name": "",
          "type": "string"
        }
      ],
      "stateMutability": "view",
      "type": "function"
    },
    {
      "inputs": [],
      "name": "owner",
      "outputs": [
        {
          "internalType": "address",
          "name": "",
          "type": "address"
        }
      ],
      "stateMutability": "view",
      "type": "function"
    },
    {
      "inputs": [],
      "name": "rwd",
      "outputs": [
        {
          "internalType": "contract RWD",
          "name": "",
          "type": "address"
        }
      ],
      "stateMutability": "view",
      "type": "function"
    },
    {
      "inputs": [
        {
          "internalType": "uint256",
          "name": "",
          "type": "uint256"
        }
      ],
      "name": "stakers",
      "outputs": [
        {
          "internalType": "address",
          "name": "",
          "type": "address"
        }
      ],
      "stateMutability": "view",
      "type": "function"
    },
    {
      "inputs": [
        {
          "internalType": "address",
          "name": "",
          "type": "address"
        }
      ],
      "name": "stakingBalance",
      "outputs": [
        {
          "internalType": "uint256",
          "name": "",
          "type": "uint256"
        }
      ],
      "stateMutability": "view",
      "type": "function"
    },
    {
      "inputs": [],
      "name": "tether",
      "outputs": [
        {
          "internalType": "contract Tether",
          "name": "",
          "type": "address"
        }
      ],
      "stateMutability": "view",
      "type": "function"
    },
    {
      "inputs": [
        {
          "internalType": "uint256",
          "name": "_amount",
          "type": "uint256"
        }
      ],
      "name": "depositTokens",
      "outputs": [],
      "stateMutability": "nonpayable",
      "type": "function"
    },
    {
      "inputs": [],
      "name": "issueTokens",
      "outputs": [],
      "stateMutability": "nonpayable",
      "type": "function"
    }
  ],
  "bytecode": "0x60806040526040518060400160405280600e81526020017f446563656e7472616c2042616e6b000000000000000000000000000000000000815250600090816200004a919062000382565b503480156200005857600080fd5b506040516200145e3803806200145e83398181016040528101906200007e91906200052c565b81600360006101000a81548173ffffffffffffffffffffffffffffffffffffffff021916908373ffffffffffffffffffffffffffffffffffffffff16021790555080600260006101000a81548173ffffffffffffffffffffffffffffffffffffffff021916908373ffffffffffffffffffffffffffffffffffffffff160217905550505062000573565b600081519050919050565b7f4e487b7100000000000000000000000000000000000000000000000000000000600052604160045260246000fd5b7f4e487b7100000000000000000000000000000000000000000000000000000000600052602260045260246000fd5b600060028204905060018216806200018a57607f821691505b602082108103620001a0576200019f62000142565b5b50919050565b60008190508160005260206000209050919050565b60006020601f8301049050919050565b600082821b905092915050565b6000600883026200020a7fffffffffffffffffffffffffffffffffffffffffffffffffffffffffffffffff82620001cb565b620002168683620001cb565b95508019841693508086168417925050509392505050565b6000819050919050565b6000819050919050565b6000620002636200025d62000257846200022e565b62000238565b6200022e565b9050919050565b6000819050919050565b6200027f8362000242565b620002976200028e826200026a565b848454620001d8565b825550505050565b600090565b620002ae6200029f565b620002bb81848462000274565b505050565b5b81811015620002e357620002d7600082620002a4565b600181019050620002c1565b5050565b601f8211156200033257620002fc81620001a6565b6200030784620001bb565b8101602085101562000317578190505b6200032f6200032685620001bb565b830182620002c0565b50505b505050565b600082821c905092915050565b6000620003576000198460080262000337565b1980831691505092915050565b600062000372838362000344565b9150826002028217905092915050565b6200038d8262000108565b67ffffffffffffffff811115620003a957620003a862000113565b5b620003b5825462000171565b620003c2828285620002e7565b600060209050601f831160018114620003fa5760008415620003e5578287015190505b620003f1858262000364565b86555062000461565b601f1984166200040a86620001a6565b60005b8281101562000434578489015182556001820191506020850194506020810190506200040d565b8683101562000454578489015162000450601f89168262000344565b8355505b6001600288020188555050505b505050505050565b600080fd5b600073ffffffffffffffffffffffffffffffffffffffff82169050919050565b60006200049b826200046e565b9050919050565b6000620004af826200048e565b9050919050565b620004c181620004a2565b8114620004cd57600080fd5b50565b600081519050620004e181620004b6565b92915050565b6000620004f4826200048e565b9050919050565b6200050681620004e7565b81146200051257600080fd5b50565b6000815190506200052681620004fb565b92915050565b6000806040838503121562000546576200054562000469565b5b60006200055685828601620004d0565b9250506020620005698582860162000515565b9150509250929050565b610edb80620005836000396000f3fe608060405234801561001057600080fd5b506004361061009e5760003560e01c80636f49712b116100665780636f49712b146101375780638da5cb5b14610167578063c93c8f3414610185578063dd49756e146101b5578063fd5e6dd1146101d15761009e565b806306fdde03146100a35780631a8972d3146100c157806345bc78ab146100df5780635efc071a1461010f57806360ab58521461012d575b600080fd5b6100ab610201565b6040516100b89190610903565b60405180910390f35b6100c961028f565b6040516100d691906109a4565b60405180910390f35b6100f960048036038101906100f49190610a02565b6102b5565b6040516101069190610a48565b60405180910390f35b6101176102cd565b6040516101249190610a84565b60405180910390f35b6101356102f3565b005b610151600480360381019061014c9190610a02565b6104e9565b60405161015e9190610aba565b60405180910390f35b61016f610509565b60405161017c9190610ae4565b60405180910390f35b61019f600480360381019061019a9190610a02565b61052f565b6040516101ac9190610aba565b60405180910390f35b6101cf60048036038101906101ca9190610b2b565b61054f565b005b6101eb60048036038101906101e69190610b2b565b61082b565b6040516101f89190610ae4565b60405180910390f35b6000805461020e90610b87565b80601f016020809104026020016040519081016040528092919081815260200182805461023a90610b87565b80156102875780601f1061025c57610100808354040283529160200191610287565b820191906000526020600020905b81548152906001019060200180831161026a57829003601f168201915b505050505081565b600360009054906101000a900473ffffffffffffffffffffffffffffffffffffffff1681565b60056020528060005260406000206000915090505481565b600260009054906101000a900473ffffffffffffffffffffffffffffffffffffffff1681565b600160009054906101000a900473ffffffffffffffffffffffffffffffffffffffff1673ffffffffffffffffffffffffffffffffffffffff163373ffffffffffffffffffffffffffffffffffffffff1614610383576040517f08c379a000000000000000000000000000000000000000000000000000000000815260040161037a90610c04565b60405180910390fd5b60005b6004805490508110156104e6576000600482815481106103a9576103a8610c24565b5b9060005260206000200160009054906101000a900473ffffffffffffffffffffffffffffffffffffffff16905060006009600560008473ffffffffffffffffffffffffffffffffffffffff1673ffffffffffffffffffffffffffffffffffffffff168152602001908152602001600020546104249190610cb1565b905060008111156104d157600360009054906101000a900473ffffffffffffffffffffffffffffffffffffffff1673ffffffffffffffffffffffffffffffffffffffff1663a9059cbb83836040518363ffffffff1660e01b815260040161048c929190610ce2565b6020604051808303816000875af11580156104ab573d6000803e3d6000fd5b505050506040513d601f19601f820116820180604052508101906104cf9190610d37565b505b505080806104de90610d64565b915050610386565b50565b60076020528060005260406000206000915054906101000a900460ff1681565b600160009054906101000a900473ffffffffffffffffffffffffffffffffffffffff1681565b60066020528060005260406000206000915054906101000a900460ff1681565b60008111610592576040517f08c379a000000000000000000000000000000000000000000000000000000000815260040161058990610df8565b60405180910390fd5b600260009054906101000a900473ffffffffffffffffffffffffffffffffffffffff1673ffffffffffffffffffffffffffffffffffffffff166323b872dd3330846040518463ffffffff1660e01b81526004016105f193929190610e18565b6020604051808303816000875af1158015610610573d6000803e3d6000fd5b505050506040513d601f19601f820116820180604052508101906106349190610d37565b5080600560003373ffffffffffffffffffffffffffffffffffffffff1673ffffffffffffffffffffffffffffffffffffffff168152602001908152602001600020546106809190610e4f565b600560003373ffffffffffffffffffffffffffffffffffffffff1673ffffffffffffffffffffffffffffffffffffffff16815260200190815260200160002081905550600660003373ffffffffffffffffffffffffffffffffffffffff1673ffffffffffffffffffffffffffffffffffffffff16815260200190815260200160002060009054906101000a900460ff16610778576004339080600181540180825580915050600190039060005260206000200160009091909190916101000a81548173ffffffffffffffffffffffffffffffffffffffff021916908373ffffffffffffffffffffffffffffffffffffffff1602179055505b6001600760003373ffffffffffffffffffffffffffffffffffffffff1673ffffffffffffffffffffffffffffffffffffffff16815260200190815260200160002060006101000a81548160ff0219169083151502179055506001600660003373ffffffffffffffffffffffffffffffffffffffff1673ffffffffffffffffffffffffffffffffffffffff16815260200190815260200160002060006101000a81548160ff02191690831515021790555050565b6004818154811061083b57600080fd5b906000526020600020016000915054906101000a900473ffffffffffffffffffffffffffffffffffffffff1681565b600081519050919050565b600082825260208201905092915050565b60005b838110156108a4578082015181840152602081019050610889565b838111156108b3576000848401525b50505050565b6000601f19601f8301169050919050565b60006108d58261086a565b6108df8185610875565b93506108ef818560208601610886565b6108f8816108b9565b840191505092915050565b6000602082019050818103600083015261091d81846108ca565b905092915050565b600073ffffffffffffffffffffffffffffffffffffffff82169050919050565b6000819050919050565b600061096a61096561096084610925565b610945565b610925565b9050919050565b600061097c8261094f565b9050919050565b600061098e82610971565b9050919050565b61099e81610983565b82525050565b60006020820190506109b96000830184610995565b92915050565b600080fd5b60006109cf82610925565b9050919050565b6109df816109c4565b81146109ea57600080fd5b50565b6000813590506109fc816109d6565b92915050565b600060208284031215610a1857610a176109bf565b5b6000610a26848285016109ed565b91505092915050565b6000819050919050565b610a4281610a2f565b82525050565b6000602082019050610a5d6000830184610a39565b92915050565b6000610a6e82610971565b9050919050565b610a7e81610a63565b82525050565b6000602082019050610a996000830184610a75565b92915050565b60008115159050919050565b610ab481610a9f565b82525050565b6000602082019050610acf6000830184610aab565b92915050565b610ade816109c4565b82525050565b6000602082019050610af96000830184610ad5565b92915050565b610b0881610a2f565b8114610b1357600080fd5b50565b600081359050610b2581610aff565b92915050565b600060208284031215610b4157610b406109bf565b5b6000610b4f84828501610b16565b91505092915050565b7f4e487b7100000000000000000000000000000000000000000000000000000000600052602260045260246000fd5b60006002820490506001821680610b9f57607f821691505b602082108103610bb257610bb1610b58565b5b50919050565b7f63616c6c6572206d75737420626520746865206f776e65720000000000000000600082015250565b6000610bee601883610875565b9150610bf982610bb8565b602082019050919050565b60006020820190508181036000830152610c1d81610be1565b9050919050565b7f4e487b7100000000000000000000000000000000000000000000000000000000600052603260045260246000fd5b7f4e487b7100000000000000000000000000000000000000000000000000000000600052601260045260246000fd5b7f4e487b7100000000000000000000000000000000000000000000000000000000600052601160045260246000fd5b6000610cbc82610a2f565b9150610cc783610a2f565b925082610cd757610cd6610c53565b5b828204905092915050565b6000604082019050610cf76000830185610ad5565b610d046020830184610a39565b9392505050565b610d1481610a9f565b8114610d1f57600080fd5b50565b600081519050610d3181610d0b565b92915050565b600060208284031215610d4d57610d4c6109bf565b5b6000610d5b84828501610d22565b91505092915050565b6000610d6f82610a2f565b91507fffffffffffffffffffffffffffffffffffffffffffffffffffffffffffffffff8203610da157610da0610c82565b5b600182019050919050565b7f616d6f756e742063616e6e6f7420626520300000000000000000000000000000600082015250565b6000610de2601283610875565b9150610ded82610dac565b602082019050919050565b60006020820190508181036000830152610e1181610dd5565b9050919050565b6000606082019050610e2d6000830186610ad5565b610e3a6020830185610ad5565b610e476040830184610a39565b949350505050565b6000610e5a82610a2f565b9150610e6583610a2f565b9250827fffffffffffffffffffffffffffffffffffffffffffffffffffffffffffffffff03821115610e9a57610e99610c82565b5b82820190509291505056fea26469706673582212200dda506ffe093f5cff17278ed3e2b044700a869cb0ae89d00c509fa6ad2fc3c964736f6c634300080f0033",
  "immutableReferences": {},
  "source": "// SPDX-License-Identifier: MIT\n\npragma solidity >=0.4.22 <0.9.0;\n\nimport './RWD.sol';\nimport './Tether.sol';\n\ncontract DecentralBank {\n    string public name = 'Decentral Bank';\n    address public owner;\n    Tether public tether;\n    RWD public rwd;\n\n    address[] public stakers;\n\n    mapping(address => uint256) public stakingBalance;\n    mapping(address => bool) public hasStaked;\n    mapping(address => bool) public isStaking;\n    \n\n    constructor(RWD _rwd, Tether _tether) public {\n        rwd = _rwd;\n        tether = _tether;\n    }\n\n    // staking function\n    function depositTokens(uint256 _amount) public {\n        // require staking amount to be greater than 0\n        require(_amount > 0, 'amount cannot be 0');\n        \n        // Transfer Tether tokens to this contract address for staking\n        tether.transferFrom(msg.sender, address(this), _amount);\n\n        // Update Staking Balance\n        stakingBalance[msg.sender] = stakingBalance[msg.sender] + _amount;\n\n        // if they have never staked before\n        if(!hasStaked[msg.sender]){\n            stakers.push(msg.sender);\n        }\n\n        // Update Staking Balance\n        isStaking[msg.sender] = true;\n        hasStaked[msg.sender] = true;\n    }\n\n    // issue rewards\n    function issueTokens() public {\n        // require the owner to issue tokens only\n        require(msg.sender == owner, 'caller must be the owner');\n\n        for(uint i = 0; i < stakers.length; i++)\n        {\n            address recipient = stakers[i];\n            uint balance = stakingBalance[recipient] / 9;\n            if(balance > 0){\n                rwd.transfer(recipient, balance);\n            }\n        }\n    }\n}",
  "sourcePath": "/home/berke/Documents/defi-staking-app-starter/src/contracts/DecentralBank.sol",
  "compiler": {
    "name": "solc",
    "version": "0.8.15+commit.e14f2714.Emscripten.clang"
  },
  "schemaVersion": "3.4.7",
  "updatedAt": "2022-06-28T23:11:08.455Z",
  "devdoc": {
    "kind": "dev",
    "methods": {},
    "version": 1
  },
  "userdoc": {
    "kind": "user",
    "methods": {},
    "version": 1
  }
}